{
	"contracts/hello.sol": {
		"hello": {
			"abi": [
				{
					"inputs": [],
					"name": "getter",
					"outputs": [
						{
							"internalType": "uint256",
							"name": "",
							"type": "uint256"
						}
					],
					"stateMutability": "view",
					"type": "function"
				},
				{
					"inputs": [
						{
							"internalType": "uint256",
							"name": "newAge",
							"type": "uint256"
						}
					],
					"name": "inputSetter",
					"outputs": [],
					"stateMutability": "nonpayable",
					"type": "function"
				},
				{
					"inputs": [],
					"name": "printName",
					"outputs": [
						{
							"internalType": "string",
							"name": "",
							"type": "string"
						}
					],
					"stateMutability": "view",
					"type": "function"
				},
				{
					"inputs": [],
					"name": "setter",
					"outputs": [],
					"stateMutability": "nonpayable",
					"type": "function"
				}
			],
			"devdoc": {
				"kind": "dev",
				"methods": {},
				"version": 1
			},
			"evm": {
				"assembly": "    /* \"contracts/hello.sol\":72:418  contract hello\r... */\n  mstore(0x40, 0x80)\n    /* \"contracts/hello.sol\":95:118  string a=\"Sunis Sharma\" */\n  mload(0x40)\n  dup1\n  0x40\n  add\n  0x40\n  mstore\n  dup1\n  0x0c\n  dup2\n  mstore\n  0x20\n  add\n  0x53756e697320536861726d610000000000000000000000000000000000000000\n  dup2\n  mstore\n  pop\n  0x00\n  swap1\n  dup1\n  mload\n  swap1\n  0x20\n  add\n  swap1\n  tag_1\n  swap3\n  swap2\n  swap1\n  tag_2\n  jump\t// in\ntag_1:\n  pop\n    /* \"contracts/hello.sol\":224:225  9 */\n  0x09\n    /* \"contracts/hello.sol\":214:225  uint age =9 */\n  0x01\n  sstore\n    /* \"contracts/hello.sol\":72:418  contract hello\r... */\n  callvalue\n  dup1\n  iszero\n  tag_3\n  jumpi\n  0x00\n  dup1\n  revert\ntag_3:\n  pop\n  jump(tag_4)\ntag_2:\n  dup3\n  dup1\n  sload\n  tag_5\n  swap1\n  tag_6\n  jump\t// in\ntag_5:\n  swap1\n  0x00\n  mstore\n  keccak256(0x00, 0x20)\n  swap1\n  0x1f\n  add\n  0x20\n  swap1\n  div\n  dup2\n  add\n  swap3\n  dup3\n  tag_8\n  jumpi\n  0x00\n  dup6\n  sstore\n  jump(tag_7)\ntag_8:\n  dup3\n  0x1f\n  lt\n  tag_9\n  jumpi\n  dup1\n  mload\n  not(0xff)\n  and\n  dup4\n  dup1\n  add\n  or\n  dup6\n  sstore\n  jump(tag_7)\ntag_9:\n  dup3\n  dup1\n  add\n  0x01\n  add\n  dup6\n  sstore\n  dup3\n  iszero\n  tag_7\n  jumpi\n  swap2\n  dup3\n  add\ntag_10:\n  dup3\n  dup2\n  gt\n  iszero\n  tag_11\n  jumpi\n  dup3\n  mload\n  dup3\n  sstore\n  swap2\n  0x20\n  add\n  swap2\n  swap1\n  0x01\n  add\n  swap1\n  jump(tag_10)\ntag_11:\ntag_7:\n  pop\n  swap1\n  pop\n  tag_12\n  swap2\n  swap1\n  tag_13\n  jump\t// in\ntag_12:\n  pop\n  swap1\n  jump\t// out\ntag_13:\ntag_14:\n  dup1\n  dup3\n  gt\n  iszero\n  tag_15\n  jumpi\n  0x00\n  dup2\n  0x00\n  swap1\n  sstore\n  pop\n  0x01\n  add\n  jump(tag_14)\ntag_15:\n  pop\n  swap1\n  jump\t// out\n    /* \"#utility.yul\":7:327   */\ntag_6:\n    /* \"#utility.yul\":51:57   */\n  0x00\n    /* \"#utility.yul\":88:89   */\n  0x02\n    /* \"#utility.yul\":82:86   */\n  dup3\n    /* \"#utility.yul\":78:90   */\n  div\n    /* \"#utility.yul\":68:90   */\n  swap1\n  pop\n    /* \"#utility.yul\":135:136   */\n  0x01\n    /* \"#utility.yul\":129:133   */\n  dup3\n    /* \"#utility.yul\":125:137   */\n  and\n    /* \"#utility.yul\":156:174   */\n  dup1\n    /* \"#utility.yul\":146:227   */\n  tag_18\n  jumpi\n    /* \"#utility.yul\":212:216   */\n  0x7f\n    /* \"#utility.yul\":204:210   */\n  dup3\n    /* \"#utility.yul\":200:217   */\n  and\n    /* \"#utility.yul\":190:217   */\n  swap2\n  pop\n    /* \"#utility.yul\":146:227   */\ntag_18:\n    /* \"#utility.yul\":274:276   */\n  0x20\n    /* \"#utility.yul\":266:272   */\n  dup3\n    /* \"#utility.yul\":263:277   */\n  lt\n    /* \"#utility.yul\":243:261   */\n  dup2\n    /* \"#utility.yul\":240:278   */\n  eq\n    /* \"#utility.yul\":237:321   */\n  iszero\n  tag_19\n  jumpi\n    /* \"#utility.yul\":293:311   */\n  tag_20\n  tag_21\n  jump\t// in\ntag_20:\n    /* \"#utility.yul\":237:321   */\ntag_19:\n    /* \"#utility.yul\":58:327   */\n  pop\n    /* \"#utility.yul\":7:327   */\n  swap2\n  swap1\n  pop\n  jump\t// out\n    /* \"#utility.yul\":333:513   */\ntag_21:\n    /* \"#utility.yul\":381:458   */\n  0x4e487b7100000000000000000000000000000000000000000000000000000000\n    /* \"#utility.yul\":378:379   */\n  0x00\n    /* \"#utility.yul\":371:459   */\n  mstore\n    /* \"#utility.yul\":478:482   */\n  0x22\n    /* \"#utility.yul\":475:476   */\n  0x04\n    /* \"#utility.yul\":468:483   */\n  mstore\n    /* \"#utility.yul\":502:506   */\n  0x24\n    /* \"#utility.yul\":499:500   */\n  0x00\n    /* \"#utility.yul\":492:507   */\n  revert\n    /* \"contracts/hello.sol\":72:418  contract hello\r... */\ntag_4:\n  dataSize(sub_0)\n  dup1\n  dataOffset(sub_0)\n  0x00\n  codecopy\n  0x00\n  return\nstop\n\nsub_0: assembly {\n        /* \"contracts/hello.sol\":72:418  contract hello\r... */\n      mstore(0x40, 0x80)\n      callvalue\n      dup1\n      iszero\n      tag_1\n      jumpi\n      0x00\n      dup1\n      revert\n    tag_1:\n      pop\n      jumpi(tag_2, lt(calldatasize, 0x04))\n      shr(0xe0, calldataload(0x00))\n      dup1\n      0x3f3108f7\n      eq\n      tag_3\n      jumpi\n      dup1\n      0x58c39f9e\n      eq\n      tag_4\n      jumpi\n      dup1\n      0x993a04b7\n      eq\n      tag_5\n      jumpi\n      dup1\n      0xbf7297a2\n      eq\n      tag_6\n      jumpi\n    tag_2:\n      0x00\n      dup1\n      revert\n        /* \"contracts/hello.sol\":313:365  function setter() public{\r... */\n    tag_3:\n      tag_7\n      tag_8\n      jump\t// in\n    tag_7:\n      stop\n        /* \"contracts/hello.sol\":373:415  function inputSetter(uint newAge) public{} */\n    tag_4:\n      tag_9\n      0x04\n      dup1\n      calldatasize\n      sub\n      dup2\n      add\n      swap1\n      tag_10\n      swap2\n      swap1\n      tag_11\n      jump\t// in\n    tag_10:\n      tag_12\n      jump\t// in\n    tag_9:\n      stop\n        /* \"contracts/hello.sol\":232:305  function getter() public view returns(uint){\r... */\n    tag_5:\n      tag_13\n      tag_14\n      jump\t// in\n    tag_13:\n      mload(0x40)\n      tag_15\n      swap2\n      swap1\n      tag_16\n      jump\t// in\n    tag_15:\n      mload(0x40)\n      dup1\n      swap2\n      sub\n      swap1\n      return\n        /* \"contracts/hello.sol\":125:208  function printName() public view returns(string memory) {\r... */\n    tag_6:\n      tag_17\n      tag_18\n      jump\t// in\n    tag_17:\n      mload(0x40)\n      tag_19\n      swap2\n      swap1\n      tag_20\n      jump\t// in\n    tag_19:\n      mload(0x40)\n      dup1\n      swap2\n      sub\n      swap1\n      return\n        /* \"contracts/hello.sol\":313:365  function setter() public{\r... */\n    tag_8:\n        /* \"contracts/hello.sol\":356:357  1 */\n      0x01\n        /* \"contracts/hello.sol\":352:355  age */\n      dup1\n      sload\n        /* \"contracts/hello.sol\":352:357  age+1 */\n      tag_22\n      swap2\n      swap1\n      tag_23\n      jump\t// in\n    tag_22:\n        /* \"contracts/hello.sol\":348:351  age */\n      0x01\n        /* \"contracts/hello.sol\":348:357  age=age+1 */\n      dup2\n      swap1\n      sstore\n      pop\n        /* \"contracts/hello.sol\":313:365  function setter() public{\r... */\n      jump\t// out\n        /* \"contracts/hello.sol\":373:415  function inputSetter(uint newAge) public{} */\n    tag_12:\n      pop\n      jump\t// out\n        /* \"contracts/hello.sol\":232:305  function getter() public view returns(uint){\r... */\n    tag_14:\n        /* \"contracts/hello.sol\":270:274  uint */\n      0x00\n        /* \"contracts/hello.sol\":294:297  age */\n      sload(0x01)\n        /* \"contracts/hello.sol\":286:297  return  age */\n      swap1\n      pop\n        /* \"contracts/hello.sol\":232:305  function getter() public view returns(uint){\r... */\n      swap1\n      jump\t// out\n        /* \"contracts/hello.sol\":125:208  function printName() public view returns(string memory) {\r... */\n    tag_18:\n        /* \"contracts/hello.sol\":166:179  string memory */\n      0x60\n        /* \"contracts/hello.sol\":199:200  a */\n      0x00\n        /* \"contracts/hello.sol\":192:200  return a */\n      dup1\n      sload\n      tag_27\n      swap1\n      tag_28\n      jump\t// in\n    tag_27:\n      dup1\n      0x1f\n      add\n      0x20\n      dup1\n      swap2\n      div\n      mul\n      0x20\n      add\n      mload(0x40)\n      swap1\n      dup2\n      add\n      0x40\n      mstore\n      dup1\n      swap3\n      swap2\n      swap1\n      dup2\n      dup2\n      mstore\n      0x20\n      add\n      dup3\n      dup1\n      sload\n      tag_29\n      swap1\n      tag_28\n      jump\t// in\n    tag_29:\n      dup1\n      iszero\n      tag_30\n      jumpi\n      dup1\n      0x1f\n      lt\n      tag_31\n      jumpi\n      0x0100\n      dup1\n      dup4\n      sload\n      div\n      mul\n      dup4\n      mstore\n      swap2\n      0x20\n      add\n      swap2\n      jump(tag_30)\n    tag_31:\n      dup3\n      add\n      swap2\n      swap1\n      0x00\n      mstore\n      keccak256(0x00, 0x20)\n      swap1\n    tag_32:\n      dup2\n      sload\n      dup2\n      mstore\n      swap1\n      0x01\n      add\n      swap1\n      0x20\n      add\n      dup1\n      dup4\n      gt\n      tag_32\n      jumpi\n      dup3\n      swap1\n      sub\n      0x1f\n      and\n      dup3\n      add\n      swap2\n    tag_30:\n      pop\n      pop\n      pop\n      pop\n      pop\n      swap1\n      pop\n        /* \"contracts/hello.sol\":125:208  function printName() public view returns(string memory) {\r... */\n      swap1\n      jump\t// out\n        /* \"#utility.yul\":7:146   */\n    tag_34:\n        /* \"#utility.yul\":53:58   */\n      0x00\n        /* \"#utility.yul\":91:97   */\n      dup2\n        /* \"#utility.yul\":78:98   */\n      calldataload\n        /* \"#utility.yul\":69:98   */\n      swap1\n      pop\n        /* \"#utility.yul\":107:140   */\n      tag_36\n        /* \"#utility.yul\":134:139   */\n      dup2\n        /* \"#utility.yul\":107:140   */\n      tag_37\n      jump\t// in\n    tag_36:\n        /* \"#utility.yul\":7:146   */\n      swap3\n      swap2\n      pop\n      pop\n      jump\t// out\n        /* \"#utility.yul\":152:481   */\n    tag_11:\n        /* \"#utility.yul\":211:217   */\n      0x00\n        /* \"#utility.yul\":260:262   */\n      0x20\n        /* \"#utility.yul\":248:257   */\n      dup3\n        /* \"#utility.yul\":239:246   */\n      dup5\n        /* \"#utility.yul\":235:258   */\n      sub\n        /* \"#utility.yul\":231:263   */\n      slt\n        /* \"#utility.yul\":228:347   */\n      iszero\n      tag_39\n      jumpi\n        /* \"#utility.yul\":266:345   */\n      tag_40\n      tag_41\n      jump\t// in\n    tag_40:\n        /* \"#utility.yul\":228:347   */\n    tag_39:\n        /* \"#utility.yul\":386:387   */\n      0x00\n        /* \"#utility.yul\":411:464   */\n      tag_42\n        /* \"#utility.yul\":456:463   */\n      dup5\n        /* \"#utility.yul\":447:453   */\n      dup3\n        /* \"#utility.yul\":436:445   */\n      dup6\n        /* \"#utility.yul\":432:454   */\n      add\n        /* \"#utility.yul\":411:464   */\n      tag_34\n      jump\t// in\n    tag_42:\n        /* \"#utility.yul\":401:464   */\n      swap2\n      pop\n        /* \"#utility.yul\":357:474   */\n      pop\n        /* \"#utility.yul\":152:481   */\n      swap3\n      swap2\n      pop\n      pop\n      jump\t// out\n        /* \"#utility.yul\":487:851   */\n    tag_43:\n        /* \"#utility.yul\":575:578   */\n      0x00\n        /* \"#utility.yul\":603:642   */\n      tag_45\n        /* \"#utility.yul\":636:641   */\n      dup3\n        /* \"#utility.yul\":603:642   */\n      tag_46\n      jump\t// in\n    tag_45:\n        /* \"#utility.yul\":658:729   */\n      tag_47\n        /* \"#utility.yul\":722:728   */\n      dup2\n        /* \"#utility.yul\":717:720   */\n      dup6\n        /* \"#utility.yul\":658:729   */\n      tag_48\n      jump\t// in\n    tag_47:\n        /* \"#utility.yul\":651:729   */\n      swap4\n      pop\n        /* \"#utility.yul\":738:790   */\n      tag_49\n        /* \"#utility.yul\":783:789   */\n      dup2\n        /* \"#utility.yul\":778:781   */\n      dup6\n        /* \"#utility.yul\":771:775   */\n      0x20\n        /* \"#utility.yul\":764:769   */\n      dup7\n        /* \"#utility.yul\":760:776   */\n      add\n        /* \"#utility.yul\":738:790   */\n      tag_50\n      jump\t// in\n    tag_49:\n        /* \"#utility.yul\":815:844   */\n      tag_51\n        /* \"#utility.yul\":837:843   */\n      dup2\n        /* \"#utility.yul\":815:844   */\n      tag_52\n      jump\t// in\n    tag_51:\n        /* \"#utility.yul\":810:813   */\n      dup5\n        /* \"#utility.yul\":806:845   */\n      add\n        /* \"#utility.yul\":799:845   */\n      swap2\n      pop\n        /* \"#utility.yul\":579:851   */\n      pop\n        /* \"#utility.yul\":487:851   */\n      swap3\n      swap2\n      pop\n      pop\n      jump\t// out\n        /* \"#utility.yul\":857:975   */\n    tag_53:\n        /* \"#utility.yul\":944:968   */\n      tag_55\n        /* \"#utility.yul\":962:967   */\n      dup2\n        /* \"#utility.yul\":944:968   */\n      tag_56\n      jump\t// in\n    tag_55:\n        /* \"#utility.yul\":939:942   */\n      dup3\n        /* \"#utility.yul\":932:969   */\n      mstore\n        /* \"#utility.yul\":857:975   */\n      pop\n      pop\n      jump\t// out\n        /* \"#utility.yul\":981:1294   */\n    tag_20:\n        /* \"#utility.yul\":1094:1098   */\n      0x00\n        /* \"#utility.yul\":1132:1134   */\n      0x20\n        /* \"#utility.yul\":1121:1130   */\n      dup3\n        /* \"#utility.yul\":1117:1135   */\n      add\n        /* \"#utility.yul\":1109:1135   */\n      swap1\n      pop\n        /* \"#utility.yul\":1181:1190   */\n      dup2\n        /* \"#utility.yul\":1175:1179   */\n      dup2\n        /* \"#utility.yul\":1171:1191   */\n      sub\n        /* \"#utility.yul\":1167:1168   */\n      0x00\n        /* \"#utility.yul\":1156:1165   */\n      dup4\n        /* \"#utility.yul\":1152:1169   */\n      add\n        /* \"#utility.yul\":1145:1192   */\n      mstore\n        /* \"#utility.yul\":1209:1287   */\n      tag_58\n        /* \"#utility.yul\":1282:1286   */\n      dup2\n        /* \"#utility.yul\":1273:1279   */\n      dup5\n        /* \"#utility.yul\":1209:1287   */\n      tag_43\n      jump\t// in\n    tag_58:\n        /* \"#utility.yul\":1201:1287   */\n      swap1\n      pop\n        /* \"#utility.yul\":981:1294   */\n      swap3\n      swap2\n      pop\n      pop\n      jump\t// out\n        /* \"#utility.yul\":1300:1522   */\n    tag_16:\n        /* \"#utility.yul\":1393:1397   */\n      0x00\n        /* \"#utility.yul\":1431:1433   */\n      0x20\n        /* \"#utility.yul\":1420:1429   */\n      dup3\n        /* \"#utility.yul\":1416:1434   */\n      add\n        /* \"#utility.yul\":1408:1434   */\n      swap1\n      pop\n        /* \"#utility.yul\":1444:1515   */\n      tag_60\n        /* \"#utility.yul\":1512:1513   */\n      0x00\n        /* \"#utility.yul\":1501:1510   */\n      dup4\n        /* \"#utility.yul\":1497:1514   */\n      add\n        /* \"#utility.yul\":1488:1494   */\n      dup5\n        /* \"#utility.yul\":1444:1515   */\n      tag_53\n      jump\t// in\n    tag_60:\n        /* \"#utility.yul\":1300:1522   */\n      swap3\n      swap2\n      pop\n      pop\n      jump\t// out\n        /* \"#utility.yul\":1609:1708   */\n    tag_46:\n        /* \"#utility.yul\":1661:1667   */\n      0x00\n        /* \"#utility.yul\":1695:1700   */\n      dup2\n        /* \"#utility.yul\":1689:1701   */\n      mload\n        /* \"#utility.yul\":1679:1701   */\n      swap1\n      pop\n        /* \"#utility.yul\":1609:1708   */\n      swap2\n      swap1\n      pop\n      jump\t// out\n        /* \"#utility.yul\":1714:1883   */\n    tag_48:\n        /* \"#utility.yul\":1798:1809   */\n      0x00\n        /* \"#utility.yul\":1832:1838   */\n      dup3\n        /* \"#utility.yul\":1827:1830   */\n      dup3\n        /* \"#utility.yul\":1820:1839   */\n      mstore\n        /* \"#utility.yul\":1872:1876   */\n      0x20\n        /* \"#utility.yul\":1867:1870   */\n      dup3\n        /* \"#utility.yul\":1863:1877   */\n      add\n        /* \"#utility.yul\":1848:1877   */\n      swap1\n      pop\n        /* \"#utility.yul\":1714:1883   */\n      swap3\n      swap2\n      pop\n      pop\n      jump\t// out\n        /* \"#utility.yul\":1889:2194   */\n    tag_23:\n        /* \"#utility.yul\":1929:1932   */\n      0x00\n        /* \"#utility.yul\":1948:1968   */\n      tag_66\n        /* \"#utility.yul\":1966:1967   */\n      dup3\n        /* \"#utility.yul\":1948:1968   */\n      tag_56\n      jump\t// in\n    tag_66:\n        /* \"#utility.yul\":1943:1968   */\n      swap2\n      pop\n        /* \"#utility.yul\":1982:2002   */\n      tag_67\n        /* \"#utility.yul\":2000:2001   */\n      dup4\n        /* \"#utility.yul\":1982:2002   */\n      tag_56\n      jump\t// in\n    tag_67:\n        /* \"#utility.yul\":1977:2002   */\n      swap3\n      pop\n        /* \"#utility.yul\":2136:2137   */\n      dup3\n        /* \"#utility.yul\":2068:2134   */\n      0xffffffffffffffffffffffffffffffffffffffffffffffffffffffffffffffff\n        /* \"#utility.yul\":2064:2138   */\n      sub\n        /* \"#utility.yul\":2061:2062   */\n      dup3\n        /* \"#utility.yul\":2058:2139   */\n      gt\n        /* \"#utility.yul\":2055:2162   */\n      iszero\n      tag_68\n      jumpi\n        /* \"#utility.yul\":2142:2160   */\n      tag_69\n      tag_70\n      jump\t// in\n    tag_69:\n        /* \"#utility.yul\":2055:2162   */\n    tag_68:\n        /* \"#utility.yul\":2186:2187   */\n      dup3\n        /* \"#utility.yul\":2183:2184   */\n      dup3\n        /* \"#utility.yul\":2179:2188   */\n      add\n        /* \"#utility.yul\":2172:2188   */\n      swap1\n      pop\n        /* \"#utility.yul\":1889:2194   */\n      swap3\n      swap2\n      pop\n      pop\n      jump\t// out\n        /* \"#utility.yul\":2200:2277   */\n    tag_56:\n        /* \"#utility.yul\":2237:2244   */\n      0x00\n        /* \"#utility.yul\":2266:2271   */\n      dup2\n        /* \"#utility.yul\":2255:2271   */\n      swap1\n      pop\n        /* \"#utility.yul\":2200:2277   */\n      swap2\n      swap1\n      pop\n      jump\t// out\n        /* \"#utility.yul\":2283:2590   */\n    tag_50:\n        /* \"#utility.yul\":2351:2352   */\n      0x00\n        /* \"#utility.yul\":2361:2474   */\n    tag_73:\n        /* \"#utility.yul\":2375:2381   */\n      dup4\n        /* \"#utility.yul\":2372:2373   */\n      dup2\n        /* \"#utility.yul\":2369:2382   */\n      lt\n        /* \"#utility.yul\":2361:2474   */\n      iszero\n      tag_75\n      jumpi\n        /* \"#utility.yul\":2460:2461   */\n      dup1\n        /* \"#utility.yul\":2455:2458   */\n      dup3\n        /* \"#utility.yul\":2451:2462   */\n      add\n        /* \"#utility.yul\":2445:2463   */\n      mload\n        /* \"#utility.yul\":2441:2442   */\n      dup2\n        /* \"#utility.yul\":2436:2439   */\n      dup5\n        /* \"#utility.yul\":2432:2443   */\n      add\n        /* \"#utility.yul\":2425:2464   */\n      mstore\n        /* \"#utility.yul\":2397:2399   */\n      0x20\n        /* \"#utility.yul\":2394:2395   */\n      dup2\n        /* \"#utility.yul\":2390:2400   */\n      add\n        /* \"#utility.yul\":2385:2400   */\n      swap1\n      pop\n        /* \"#utility.yul\":2361:2474   */\n      jump(tag_73)\n    tag_75:\n        /* \"#utility.yul\":2492:2498   */\n      dup4\n        /* \"#utility.yul\":2489:2490   */\n      dup2\n        /* \"#utility.yul\":2486:2499   */\n      gt\n        /* \"#utility.yul\":2483:2584   */\n      iszero\n      tag_76\n      jumpi\n        /* \"#utility.yul\":2572:2573   */\n      0x00\n        /* \"#utility.yul\":2563:2569   */\n      dup5\n        /* \"#utility.yul\":2558:2561   */\n      dup5\n        /* \"#utility.yul\":2554:2570   */\n      add\n        /* \"#utility.yul\":2547:2574   */\n      mstore\n        /* \"#utility.yul\":2483:2584   */\n    tag_76:\n        /* \"#utility.yul\":2332:2590   */\n      pop\n        /* \"#utility.yul\":2283:2590   */\n      pop\n      pop\n      pop\n      jump\t// out\n        /* \"#utility.yul\":2596:2916   */\n    tag_28:\n        /* \"#utility.yul\":2640:2646   */\n      0x00\n        /* \"#utility.yul\":2677:2678   */\n      0x02\n        /* \"#utility.yul\":2671:2675   */\n      dup3\n        /* \"#utility.yul\":2667:2679   */\n      div\n        /* \"#utility.yul\":2657:2679   */\n      swap1\n      pop\n        /* \"#utility.yul\":2724:2725   */\n      0x01\n        /* \"#utility.yul\":2718:2722   */\n      dup3\n        /* \"#utility.yul\":2714:2726   */\n      and\n        /* \"#utility.yul\":2745:2763   */\n      dup1\n        /* \"#utility.yul\":2735:2816   */\n      tag_78\n      jumpi\n        /* \"#utility.yul\":2801:2805   */\n      0x7f\n        /* \"#utility.yul\":2793:2799   */\n      dup3\n        /* \"#utility.yul\":2789:2806   */\n      and\n        /* \"#utility.yul\":2779:2806   */\n      swap2\n      pop\n        /* \"#utility.yul\":2735:2816   */\n    tag_78:\n        /* \"#utility.yul\":2863:2865   */\n      0x20\n        /* \"#utility.yul\":2855:2861   */\n      dup3\n        /* \"#utility.yul\":2852:2866   */\n      lt\n        /* \"#utility.yul\":2832:2850   */\n      dup2\n        /* \"#utility.yul\":2829:2867   */\n      eq\n        /* \"#utility.yul\":2826:2910   */\n      iszero\n      tag_79\n      jumpi\n        /* \"#utility.yul\":2882:2900   */\n      tag_80\n      tag_81\n      jump\t// in\n    tag_80:\n        /* \"#utility.yul\":2826:2910   */\n    tag_79:\n        /* \"#utility.yul\":2647:2916   */\n      pop\n        /* \"#utility.yul\":2596:2916   */\n      swap2\n      swap1\n      pop\n      jump\t// out\n        /* \"#utility.yul\":2922:3102   */\n    tag_70:\n        /* \"#utility.yul\":2970:3047   */\n      0x4e487b7100000000000000000000000000000000000000000000000000000000\n        /* \"#utility.yul\":2967:2968   */\n      0x00\n        /* \"#utility.yul\":2960:3048   */\n      mstore\n        /* \"#utility.yul\":3067:3071   */\n      0x11\n        /* \"#utility.yul\":3064:3065   */\n      0x04\n        /* \"#utility.yul\":3057:3072   */\n      mstore\n        /* \"#utility.yul\":3091:3095   */\n      0x24\n        /* \"#utility.yul\":3088:3089   */\n      0x00\n        /* \"#utility.yul\":3081:3096   */\n      revert\n        /* \"#utility.yul\":3108:3288   */\n    tag_81:\n        /* \"#utility.yul\":3156:3233   */\n      0x4e487b7100000000000000000000000000000000000000000000000000000000\n        /* \"#utility.yul\":3153:3154   */\n      0x00\n        /* \"#utility.yul\":3146:3234   */\n      mstore\n        /* \"#utility.yul\":3253:3257   */\n      0x22\n        /* \"#utility.yul\":3250:3251   */\n      0x04\n        /* \"#utility.yul\":3243:3258   */\n      mstore\n        /* \"#utility.yul\":3277:3281   */\n      0x24\n        /* \"#utility.yul\":3274:3275   */\n      0x00\n        /* \"#utility.yul\":3267:3282   */\n      revert\n        /* \"#utility.yul\":3417:3534   */\n    tag_41:\n        /* \"#utility.yul\":3526:3527   */\n      0x00\n        /* \"#utility.yul\":3523:3524   */\n      dup1\n        /* \"#utility.yul\":3516:3528   */\n      revert\n        /* \"#utility.yul\":3540:3642   */\n    tag_52:\n        /* \"#utility.yul\":3581:3587   */\n      0x00\n        /* \"#utility.yul\":3632:3634   */\n      0x1f\n        /* \"#utility.yul\":3628:3635   */\n      not\n        /* \"#utility.yul\":3623:3625   */\n      0x1f\n        /* \"#utility.yul\":3616:3621   */\n      dup4\n        /* \"#utility.yul\":3612:3626   */\n      add\n        /* \"#utility.yul\":3608:3636   */\n      and\n        /* \"#utility.yul\":3598:3636   */\n      swap1\n      pop\n        /* \"#utility.yul\":3540:3642   */\n      swap2\n      swap1\n      pop\n      jump\t// out\n        /* \"#utility.yul\":3648:3770   */\n    tag_37:\n        /* \"#utility.yul\":3721:3745   */\n      tag_89\n        /* \"#utility.yul\":3739:3744   */\n      dup2\n        /* \"#utility.yul\":3721:3745   */\n      tag_56\n      jump\t// in\n    tag_89:\n        /* \"#utility.yul\":3714:3719   */\n      dup2\n        /* \"#utility.yul\":3711:3746   */\n      eq\n        /* \"#utility.yul\":3701:3764   */\n      tag_90\n      jumpi\n        /* \"#utility.yul\":3760:3761   */\n      0x00\n        /* \"#utility.yul\":3757:3758   */\n      dup1\n        /* \"#utility.yul\":3750:3762   */\n      revert\n        /* \"#utility.yul\":3701:3764   */\n    tag_90:\n        /* \"#utility.yul\":3648:3770   */\n      pop\n      jump\t// out\n\n    auxdata: 0xa26469706673582212205a68c735870741e269fb256a4a81dc75a118f06283d9b9623f99b020fd7d622164736f6c63430008070033\n}\n",
				"bytecode": {
					"linkReferences": {},
					"object": "60806040526040518060400160405280600c81526020017f53756e697320536861726d6100000000000000000000000000000000000000008152506000908051906020019061004f929190610067565b50600960015534801561006157600080fd5b5061016b565b8280546100739061010a565b90600052602060002090601f01602090048101928261009557600085556100dc565b82601f106100ae57805160ff19168380011785556100dc565b828001600101855582156100dc579182015b828111156100db5782518255916020019190600101906100c0565b5b5090506100e991906100ed565b5090565b5b808211156101065760008160009055506001016100ee565b5090565b6000600282049050600182168061012257607f821691505b602082108114156101365761013561013c565b5b50919050565b7f4e487b7100000000000000000000000000000000000000000000000000000000600052602260045260246000fd5b6103d18061017a6000396000f3fe608060405234801561001057600080fd5b506004361061004c5760003560e01c80633f3108f71461005157806358c39f9e1461005b578063993a04b714610077578063bf7297a214610095575b600080fd5b6100596100b3565b005b6100756004803603810190610070919061017d565b6100c9565b005b61007f6100cc565b60405161008c9190610214565b60405180910390f35b61009d6100d6565b6040516100aa91906101f2565b60405180910390f35b600180546100c1919061024b565b600181905550565b50565b6000600154905090565b6060600080546100e5906102de565b80601f0160208091040260200160405190810160405280929190818152602001828054610111906102de565b801561015e5780601f106101335761010080835404028352916020019161015e565b820191906000526020600020905b81548152906001019060200180831161014157829003601f168201915b5050505050905090565b60008135905061017781610384565b92915050565b6000602082840312156101935761019261036e565b5b60006101a184828501610168565b91505092915050565b60006101b58261022f565b6101bf818561023a565b93506101cf8185602086016102ab565b6101d881610373565b840191505092915050565b6101ec816102a1565b82525050565b6000602082019050818103600083015261020c81846101aa565b905092915050565b600060208201905061022960008301846101e3565b92915050565b600081519050919050565b600082825260208201905092915050565b6000610256826102a1565b9150610261836102a1565b9250827fffffffffffffffffffffffffffffffffffffffffffffffffffffffffffffffff0382111561029657610295610310565b5b828201905092915050565b6000819050919050565b60005b838110156102c95780820151818401526020810190506102ae565b838111156102d8576000848401525b50505050565b600060028204905060018216806102f657607f821691505b6020821081141561030a5761030961033f565b5b50919050565b7f4e487b7100000000000000000000000000000000000000000000000000000000600052601160045260246000fd5b7f4e487b7100000000000000000000000000000000000000000000000000000000600052602260045260246000fd5b600080fd5b6000601f19601f8301169050919050565b61038d816102a1565b811461039857600080fd5b5056fea26469706673582212205a68c735870741e269fb256a4a81dc75a118f06283d9b9623f99b020fd7d622164736f6c63430008070033",
					"opcodes": "PUSH1 0x80 PUSH1 0x40 MSTORE PUSH1 0x40 MLOAD DUP1 PUSH1 0x40 ADD PUSH1 0x40 MSTORE DUP1 PUSH1 0xC DUP2 MSTORE PUSH1 0x20 ADD PUSH32 0x53756E697320536861726D610000000000000000000000000000000000000000 DUP2 MSTORE POP PUSH1 0x0 SWAP1 DUP1 MLOAD SWAP1 PUSH1 0x20 ADD SWAP1 PUSH2 0x4F SWAP3 SWAP2 SWAP1 PUSH2 0x67 JUMP JUMPDEST POP PUSH1 0x9 PUSH1 0x1 SSTORE CALLVALUE DUP1 ISZERO PUSH2 0x61 JUMPI PUSH1 0x0 DUP1 REVERT JUMPDEST POP PUSH2 0x16B JUMP JUMPDEST DUP3 DUP1 SLOAD PUSH2 0x73 SWAP1 PUSH2 0x10A JUMP JUMPDEST SWAP1 PUSH1 0x0 MSTORE PUSH1 0x20 PUSH1 0x0 KECCAK256 SWAP1 PUSH1 0x1F ADD PUSH1 0x20 SWAP1 DIV DUP2 ADD SWAP3 DUP3 PUSH2 0x95 JUMPI PUSH1 0x0 DUP6 SSTORE PUSH2 0xDC JUMP JUMPDEST DUP3 PUSH1 0x1F LT PUSH2 0xAE JUMPI DUP1 MLOAD PUSH1 0xFF NOT AND DUP4 DUP1 ADD OR DUP6 SSTORE PUSH2 0xDC JUMP JUMPDEST DUP3 DUP1 ADD PUSH1 0x1 ADD DUP6 SSTORE DUP3 ISZERO PUSH2 0xDC JUMPI SWAP2 DUP3 ADD JUMPDEST DUP3 DUP2 GT ISZERO PUSH2 0xDB JUMPI DUP3 MLOAD DUP3 SSTORE SWAP2 PUSH1 0x20 ADD SWAP2 SWAP1 PUSH1 0x1 ADD SWAP1 PUSH2 0xC0 JUMP JUMPDEST JUMPDEST POP SWAP1 POP PUSH2 0xE9 SWAP2 SWAP1 PUSH2 0xED JUMP JUMPDEST POP SWAP1 JUMP JUMPDEST JUMPDEST DUP1 DUP3 GT ISZERO PUSH2 0x106 JUMPI PUSH1 0x0 DUP2 PUSH1 0x0 SWAP1 SSTORE POP PUSH1 0x1 ADD PUSH2 0xEE JUMP JUMPDEST POP SWAP1 JUMP JUMPDEST PUSH1 0x0 PUSH1 0x2 DUP3 DIV SWAP1 POP PUSH1 0x1 DUP3 AND DUP1 PUSH2 0x122 JUMPI PUSH1 0x7F DUP3 AND SWAP2 POP JUMPDEST PUSH1 0x20 DUP3 LT DUP2 EQ ISZERO PUSH2 0x136 JUMPI PUSH2 0x135 PUSH2 0x13C JUMP JUMPDEST JUMPDEST POP SWAP2 SWAP1 POP JUMP JUMPDEST PUSH32 0x4E487B7100000000000000000000000000000000000000000000000000000000 PUSH1 0x0 MSTORE PUSH1 0x22 PUSH1 0x4 MSTORE PUSH1 0x24 PUSH1 0x0 REVERT JUMPDEST PUSH2 0x3D1 DUP1 PUSH2 0x17A PUSH1 0x0 CODECOPY PUSH1 0x0 RETURN INVALID PUSH1 0x80 PUSH1 0x40 MSTORE CALLVALUE DUP1 ISZERO PUSH2 0x10 JUMPI PUSH1 0x0 DUP1 REVERT JUMPDEST POP PUSH1 0x4 CALLDATASIZE LT PUSH2 0x4C JUMPI PUSH1 0x0 CALLDATALOAD PUSH1 0xE0 SHR DUP1 PUSH4 0x3F3108F7 EQ PUSH2 0x51 JUMPI DUP1 PUSH4 0x58C39F9E EQ PUSH2 0x5B JUMPI DUP1 PUSH4 0x993A04B7 EQ PUSH2 0x77 JUMPI DUP1 PUSH4 0xBF7297A2 EQ PUSH2 0x95 JUMPI JUMPDEST PUSH1 0x0 DUP1 REVERT JUMPDEST PUSH2 0x59 PUSH2 0xB3 JUMP JUMPDEST STOP JUMPDEST PUSH2 0x75 PUSH1 0x4 DUP1 CALLDATASIZE SUB DUP2 ADD SWAP1 PUSH2 0x70 SWAP2 SWAP1 PUSH2 0x17D JUMP JUMPDEST PUSH2 0xC9 JUMP JUMPDEST STOP JUMPDEST PUSH2 0x7F PUSH2 0xCC JUMP JUMPDEST PUSH1 0x40 MLOAD PUSH2 0x8C SWAP2 SWAP1 PUSH2 0x214 JUMP JUMPDEST PUSH1 0x40 MLOAD DUP1 SWAP2 SUB SWAP1 RETURN JUMPDEST PUSH2 0x9D PUSH2 0xD6 JUMP JUMPDEST PUSH1 0x40 MLOAD PUSH2 0xAA SWAP2 SWAP1 PUSH2 0x1F2 JUMP JUMPDEST PUSH1 0x40 MLOAD DUP1 SWAP2 SUB SWAP1 RETURN JUMPDEST PUSH1 0x1 DUP1 SLOAD PUSH2 0xC1 SWAP2 SWAP1 PUSH2 0x24B JUMP JUMPDEST PUSH1 0x1 DUP2 SWAP1 SSTORE POP JUMP JUMPDEST POP JUMP JUMPDEST PUSH1 0x0 PUSH1 0x1 SLOAD SWAP1 POP SWAP1 JUMP JUMPDEST PUSH1 0x60 PUSH1 0x0 DUP1 SLOAD PUSH2 0xE5 SWAP1 PUSH2 0x2DE JUMP JUMPDEST DUP1 PUSH1 0x1F ADD PUSH1 0x20 DUP1 SWAP2 DIV MUL PUSH1 0x20 ADD PUSH1 0x40 MLOAD SWAP1 DUP2 ADD PUSH1 0x40 MSTORE DUP1 SWAP3 SWAP2 SWAP1 DUP2 DUP2 MSTORE PUSH1 0x20 ADD DUP3 DUP1 SLOAD PUSH2 0x111 SWAP1 PUSH2 0x2DE JUMP JUMPDEST DUP1 ISZERO PUSH2 0x15E JUMPI DUP1 PUSH1 0x1F LT PUSH2 0x133 JUMPI PUSH2 0x100 DUP1 DUP4 SLOAD DIV MUL DUP4 MSTORE SWAP2 PUSH1 0x20 ADD SWAP2 PUSH2 0x15E JUMP JUMPDEST DUP3 ADD SWAP2 SWAP1 PUSH1 0x0 MSTORE PUSH1 0x20 PUSH1 0x0 KECCAK256 SWAP1 JUMPDEST DUP2 SLOAD DUP2 MSTORE SWAP1 PUSH1 0x1 ADD SWAP1 PUSH1 0x20 ADD DUP1 DUP4 GT PUSH2 0x141 JUMPI DUP3 SWAP1 SUB PUSH1 0x1F AND DUP3 ADD SWAP2 JUMPDEST POP POP POP POP POP SWAP1 POP SWAP1 JUMP JUMPDEST PUSH1 0x0 DUP2 CALLDATALOAD SWAP1 POP PUSH2 0x177 DUP2 PUSH2 0x384 JUMP JUMPDEST SWAP3 SWAP2 POP POP JUMP JUMPDEST PUSH1 0x0 PUSH1 0x20 DUP3 DUP5 SUB SLT ISZERO PUSH2 0x193 JUMPI PUSH2 0x192 PUSH2 0x36E JUMP JUMPDEST JUMPDEST PUSH1 0x0 PUSH2 0x1A1 DUP5 DUP3 DUP6 ADD PUSH2 0x168 JUMP JUMPDEST SWAP2 POP POP SWAP3 SWAP2 POP POP JUMP JUMPDEST PUSH1 0x0 PUSH2 0x1B5 DUP3 PUSH2 0x22F JUMP JUMPDEST PUSH2 0x1BF DUP2 DUP6 PUSH2 0x23A JUMP JUMPDEST SWAP4 POP PUSH2 0x1CF DUP2 DUP6 PUSH1 0x20 DUP7 ADD PUSH2 0x2AB JUMP JUMPDEST PUSH2 0x1D8 DUP2 PUSH2 0x373 JUMP JUMPDEST DUP5 ADD SWAP2 POP POP SWAP3 SWAP2 POP POP JUMP JUMPDEST PUSH2 0x1EC DUP2 PUSH2 0x2A1 JUMP JUMPDEST DUP3 MSTORE POP POP JUMP JUMPDEST PUSH1 0x0 PUSH1 0x20 DUP3 ADD SWAP1 POP DUP2 DUP2 SUB PUSH1 0x0 DUP4 ADD MSTORE PUSH2 0x20C DUP2 DUP5 PUSH2 0x1AA JUMP JUMPDEST SWAP1 POP SWAP3 SWAP2 POP POP JUMP JUMPDEST PUSH1 0x0 PUSH1 0x20 DUP3 ADD SWAP1 POP PUSH2 0x229 PUSH1 0x0 DUP4 ADD DUP5 PUSH2 0x1E3 JUMP JUMPDEST SWAP3 SWAP2 POP POP JUMP JUMPDEST PUSH1 0x0 DUP2 MLOAD SWAP1 POP SWAP2 SWAP1 POP JUMP JUMPDEST PUSH1 0x0 DUP3 DUP3 MSTORE PUSH1 0x20 DUP3 ADD SWAP1 POP SWAP3 SWAP2 POP POP JUMP JUMPDEST PUSH1 0x0 PUSH2 0x256 DUP3 PUSH2 0x2A1 JUMP JUMPDEST SWAP2 POP PUSH2 0x261 DUP4 PUSH2 0x2A1 JUMP JUMPDEST SWAP3 POP DUP3 PUSH32 0xFFFFFFFFFFFFFFFFFFFFFFFFFFFFFFFFFFFFFFFFFFFFFFFFFFFFFFFFFFFFFFFF SUB DUP3 GT ISZERO PUSH2 0x296 JUMPI PUSH2 0x295 PUSH2 0x310 JUMP JUMPDEST JUMPDEST DUP3 DUP3 ADD SWAP1 POP SWAP3 SWAP2 POP POP JUMP JUMPDEST PUSH1 0x0 DUP2 SWAP1 POP SWAP2 SWAP1 POP JUMP JUMPDEST PUSH1 0x0 JUMPDEST DUP4 DUP2 LT ISZERO PUSH2 0x2C9 JUMPI DUP1 DUP3 ADD MLOAD DUP2 DUP5 ADD MSTORE PUSH1 0x20 DUP2 ADD SWAP1 POP PUSH2 0x2AE JUMP JUMPDEST DUP4 DUP2 GT ISZERO PUSH2 0x2D8 JUMPI PUSH1 0x0 DUP5 DUP5 ADD MSTORE JUMPDEST POP POP POP POP JUMP JUMPDEST PUSH1 0x0 PUSH1 0x2 DUP3 DIV SWAP1 POP PUSH1 0x1 DUP3 AND DUP1 PUSH2 0x2F6 JUMPI PUSH1 0x7F DUP3 AND SWAP2 POP JUMPDEST PUSH1 0x20 DUP3 LT DUP2 EQ ISZERO PUSH2 0x30A JUMPI PUSH2 0x309 PUSH2 0x33F JUMP JUMPDEST JUMPDEST POP SWAP2 SWAP1 POP JUMP JUMPDEST PUSH32 0x4E487B7100000000000000000000000000000000000000000000000000000000 PUSH1 0x0 MSTORE PUSH1 0x11 PUSH1 0x4 MSTORE PUSH1 0x24 PUSH1 0x0 REVERT JUMPDEST PUSH32 0x4E487B7100000000000000000000000000000000000000000000000000000000 PUSH1 0x0 MSTORE PUSH1 0x22 PUSH1 0x4 MSTORE PUSH1 0x24 PUSH1 0x0 REVERT JUMPDEST PUSH1 0x0 DUP1 REVERT JUMPDEST PUSH1 0x0 PUSH1 0x1F NOT PUSH1 0x1F DUP4 ADD AND SWAP1 POP SWAP2 SWAP1 POP JUMP JUMPDEST PUSH2 0x38D DUP2 PUSH2 0x2A1 JUMP JUMPDEST DUP2 EQ PUSH2 0x398 JUMPI PUSH1 0x0 DUP1 REVERT JUMPDEST POP JUMP INVALID LOG2 PUSH5 0x6970667358 0x22 SLT KECCAK256 GAS PUSH9 0xC735870741E269FB25 PUSH11 0x4A81DC75A118F06283D9B9 PUSH3 0x3F99B0 KECCAK256 REVERT PUSH30 0x622164736F6C634300080700330000000000000000000000000000000000 "
				},
				"gasEstimates": {
					"creation": {
						"codeDepositCost": "195400",
						"executionCost": "infinite",
						"totalCost": "infinite"
					},
					"external": {
						"getter()": "2459",
						"inputSetter(uint256)": "406",
						"printName()": "infinite",
						"setter()": "infinite"
					}
				},
				"methodIdentifiers": {
					"getter()": "993a04b7",
					"inputSetter(uint256)": "58c39f9e",
					"printName()": "bf7297a2",
					"setter()": "3f3108f7"
				}
			},
			"storageLayout": {
				"storage": [
					{
						"astId": 4,
						"contract": "contracts/hello.sol:hello",
						"label": "a",
						"offset": 0,
						"slot": "0",
						"type": "t_string_storage"
					},
					{
						"astId": 15,
						"contract": "contracts/hello.sol:hello",
						"label": "age",
						"offset": 0,
						"slot": "1",
						"type": "t_uint256"
					}
				],
				"types": {
					"t_string_storage": {
						"encoding": "bytes",
						"label": "string",
						"numberOfBytes": "32"
					},
					"t_uint256": {
						"encoding": "inplace",
						"label": "uint256",
						"numberOfBytes": "32"
					}
				}
			},
			"userdoc": {
				"kind": "user",
				"methods": {},
				"version": 1
			}
		}
	}
}